:100000000C9456000C9460000C9460000C946000FA
:100010000C9460000C9460000C9460000C946000E0
:100020000C9460000C9460000C9460000C946000D0
:100030000C9460000C9460000C9460000C946000C0
:100040000C9460000C9460000C9460000C946000B0
:100050000C9460000C9460000C9460000C946000A0
:100060000C9460000C9460000C9460000C94600090
:100070000C9460000C9460000C9460000C94600080
:100080000C9460000C9460000C9460000C94600070
:100090000C9460000C9460000C9460000C94600060
:1000A0000C9460000C9460000C94600011241FBE3E
:1000B000CFEFDAE0DEBFCDBF0E9441040C947206A0
:1000C0000C940000CF93DF93CDB7DEB762970FB6E5
:1000D000F894DEBF0FBECDBF9A8B898B1A8219822E
:1000E00077C080E090E0A0E8BFE38B839C83AD8382
:1000F000BE8320E030E04AEF53E46B817C818D8148
:100100009E810E94DD05DC01CB018F839887A98742
:10011000BA8720E030E040E85FE36F817885898529
:100120009A850E94570588232CF481E090E09C87F3
:100130008B873FC020E03FEF4FE757E46F81788522
:1001400089859A850E94D80518164CF520E030E084
:1001500040E251E46B817C818D819E810E94DD05AE
:10016000DC01CB01BC01CD010E945C05DC01CB01AF
:100170009C878B870FC082E390E09E878D878D855B
:100180009E850197F1F79E878D878B859C850197CA
:100190009C878B878B859C85892B69F714C06F8121
:1001A000788589859A850E945C05DC01CB019C8756
:1001B0008B878B859C85988B8F878F8598890197F6
:1001C000F1F7988B8F8789819A8101969A83898329
:1001D00029813A8189899A892817390708F481CFBA
:1001E00062960FB6F894DEBF0FBECDBFDF91CF9100
:1001F0000895CF93DF93CDB7DEB785E290E025E297
:1002000030E0F90120812062FC01208385E090E04C
:100210000E94620085E290E025E230E0F901208151
:100220002F7DFC01208385E090E00E946200DF9139
:10023000CF910895CF93DF93CDB7DEB784E290E0FE
:1002400024E230E0F90120812063FC01208384E274
:1002500090E024E230E0F90120812F60FC0120834E
:1002600082E390E00E94620085E290E025E230E0C7
:10027000F90120812F7CFC01208385E290E025E2BA
:1002800030E0F9012081237FFC01208385E290E0AA
:1002900025E230E0F90120812360FC0120830E94E7
:1002A000F90085E290E025E230E0F9012081237F2A
:1002B000FC01208385E290E025E230E0F901208115
:1002C0002360FC0120830E94F90085E290E025E292
:1002D00030E0F9012081237FFC01208385E290E05A
:1002E00025E230E0F90120812360FC0120830E9497
:1002F000F90085E290E025E230E0F9012081227FDB
:10030000FC01208385E290E025E230E0F9012081C4
:100310002260FC0120830E94F90085E290E025E242
:1003200030E0F9012081227FFC01208385E290E00A
:1003300025E230E0F90120812260FC0120830E9447
:10034000F90085E290E025E230E0F90120812860A3
:10035000FC01208385E290E025E230E0F901208174
:10036000287FFC0120830E94F90085E290E025E2CD
:1003700030E0F9012081207FFC0120830E94F900F8
:1003800085E290E025E230E0F90120812860FC015F
:10039000208385E290E025E230E0F9012081287F8A
:1003A000FC0120830E94F90085E290E025E230E024
:1003B000F9012081207FFC0120830E94F90085E261
:1003C00090E025E230E0F9012081217FFC012083CB
:1003D00085E290E025E230E0F90120812160FC0116
:1003E00020830E94F90085E290E025E230E0F901E7
:1003F0002081207FFC0120830E94F90085E290E0AB
:1004000025E230E0F9012081237FFC01208385E291
:1004100090E025E230E0F90120812360FC01208397
:100420000E94F90085E290E025E230E0F9012081A8
:10043000207FFC0120830E94F90085E290E025E204
:1004400030E0F90120812F60FC0120830E94F90037
:10045000DF91CF910895CF93DF9300D0CDB7DEB772
:100460008A838A81898385E290E025E230E0F90180
:1004700020812061FC0120838981882354F485E256
:1004800090E025E230E0F90120812860FC01208322
:1004900009C085E290E025E230E0F9012081277F64
:1004A000FC0120838981082E000C990B8074992708
:1004B000892B51F085E290E025E230E0F9012081BE
:1004C0002460FC01208309C085E290E025E230E051
:1004D000F90120812B7FFC0120838981082E000CEB
:1004E000990B80729927892B51F085E290E025E2E3
:1004F00030E0F90120812260FC01208309C085E2FF
:1005000090E025E230E0F90120812D7FFC0120837D
:100510008981082E000C990B80719927892B51F045
:1005200085E290E025E230E0F90120812160FC01C4
:10053000208309C085E290E025E230E0F9012081C6
:100540002E7FFC0120830E94F90081E090E00E9450
:1005500062008981082E000C990B88709927892BDD
:1005600051F085E290E025E230E0F9012081286039
:10057000FC01208309C085E290E025E230E0F9012A
:100580002081277FFC0120838981082E000C990B94
:1005900084709927892B51F085E290E025E230E0C4
:1005A000F90120812460FC01208309C085E290E0EC
:1005B00025E230E0F90120812B7FFC012083898135
:1005C000082E000C990B82709927892B51F085E237
:1005D00090E025E230E0F90120812260FC012083D7
:1005E00009C085E290E025E230E0F90120812D7F0D
:1005F000FC0120838981082E000C990B81709927BA
:10060000892B51F085E290E025E230E0F90120816C
:100610002160FC01208309C085E290E025E230E002
:10062000F90120812E7FFC0120830E94F90081E0E6
:1006300090E00E9462000F900F90DF91CF9108959B
:10064000CF93DF9300D0CDB7DEB78A838A818983C9
:1006500085E290E025E230E0F90120812F7EFC0167
:1006600020838981882354F485E290E025E230E0FC
:10067000F90120812860FC01208309C085E290E017
:1006800025E230E0F9012081277FFC012083898168
:10069000082E000C990B80749927892B51F085E264
:1006A00090E025E230E0F90120812460FC01208304
:1006B00009C085E290E025E230E0F90120812B7F3E
:1006C000FC0120838981082E000C990B80729927E8
:1006D000892B51F085E290E025E230E0F90120819C
:1006E0002260FC01208309C085E290E025E230E031
:1006F000F90120812D7FFC0120838981082E000CC7
:10070000990B80719927892B51F085E290E025E2C1
:1007100030E0F90120812160FC01208309C085E2DD
:1007200090E025E230E0F90120812E7FFC0120835A
:100730000E94F90081E090E00E9462008981082E09
:10074000000C990B88709927892B51F085E290E075
:1007500025E230E0F90120812860FC01208309C0F6
:1007600085E290E025E230E0F9012081277FFC015D
:1007700020838981082E000C990B84709927892B7E
:1007800051F085E290E025E230E0F901208124601B
:10079000FC01208309C085E290E025E230E0F90108
:1007A00020812B7FFC0120838981082E000C990B6E
:1007B00082709927892B51F085E290E025E230E0A4
:1007C000F90120812260FC01208309C085E290E0CC
:1007D00025E230E0F90120812D7FFC012083898111
:1007E000082E000C990B81709927892B51F085E216
:1007F00090E025E230E0F90120812160FC012083B6
:1008000009C085E290E025E230E0F90120812E7FE9
:10081000FC0120830E94F90081E090E00E946200C8
:100820000F900F90DF91CF910895CF93DF9300D079
:10083000CDB7DEB79A8389830BC089819A819C01E9
:100840002F5F3F4F3A832983FC0180810E942B0256
:1008500089819A81FC018081882379F70F900F901C
:10086000DF91CF910895CF93DF931F92CDB7DEB77D
:100870008983898180580E9420030F90DF91CF9156
:100880000895CF93DF93CDB7DEB7C65FD1400FB6E3
:10089000F894DEBF0FBECDBF24EF31E0CE0103964A
:1008A000FC01A901119241505040E1F70E94A604B9
:1008B0000E941A011A82198232C00E944505482FEF
:1008C0009E012D5F3F4F89819A81820F931FFC010A
:1008D00040839E012D5F3F4F89819A81820F931F34
:1008E000FC0180818D3001F19E012D5F3F4F898198
:1008F0009A81820F931FFC0180818A30A9F09E01AA
:100900002D5F3F4F89819A81820F931FFC01808167
:100910000E942B0289819A8101969A838983898119
:100920009A81853F914048F289819A8101969E0182
:100930002D5F3F4F820F931FFC011082CE01039663
:100940000E94C40480E00E943304B4CFCF93DF93AD
:10095000CDB7DEB78DEC90E0FC0110828CEC90E01E
:100960002CE0FC01208389EC90E029EC30E0F901D7
:1009700020812861FC0120838AEC90E026E0FC01C4
:100980002083DF91CF910895CF93DF9300D000D0E3
:10099000CDB7DEB79C838B831A8219820FC0898101
:1009A0009A812B813C81820F931FFC0180810E94E0
:1009B0002B0589819A8101969A83898389819A81FD
:1009C0002B813C81820F931FFC018081882339F7A2
:1009D0000F900F900F900F90DF91CF9108950F938C
:1009E0001F93CF93DF9300D000D000D0CDB7DEB7F8
:1009F0009C838B837E836D831A82198210C08981C8
:100A00009A812B813C818901080F191F0E9445059D
:100A1000F801808389819A8101969A8389838981EB
:100A20009A812B813C81820F931FFC018081882356
:100A300039F02D813E8189819A8128173907FCF28E
:100A400026960FB6F894DEBF0FBECDBFDF91CF91D3
:100A50001F910F910895CF93DF931F92CDB7DEB70B
:100A60008983000088EC90E0FC018081882F90E071
:100A700080729927892BB1F38EEC90E02981FC01DB
:100A800020830F90DF91CF910895CF93DF93CDB75F
:100A9000DEB7000088EC90E0FC0180818823D4F769
:100AA0008EEC90E0FC018081DF91CF9108950E944F
:100AB0008B0508F481E008950E94B70588F09F57E0
:100AC00098F0B92F9927B751B0F0E1F0660F771F72
:100AD000881F991F1AF0BA95C9F714C0B13091F068
:100AE0000E94D105B1E008950C94D105672F782FAD
:100AF0008827B85F39F0B93FCCF38695779567952D
:100B0000B395D9F73EF490958095709561957F4F98
:100B10008F4F9F4F0895990F0008550FAA0BE0E8DB
:100B2000FEEF16161706E807F907C0F012161306AF
:100B3000E407F50798F0621B730B840B950B39F4EF
:100B40000A2661F0232B242B252B21F408950A2655
:100B500009F4A140A6958FEF811D811D089557FDD1
:100B60009058440F551F59F05F3F71F04795880F1B
:100B700097FB991F61F09F3F79F0879508951216B2
:100B800013061406551FF2CF4695F1DF08C016165E
:100B900017061806991FF1CF86957105610508940F
:100BA0000895E894BB2766277727CB0197F9089526
:100BB0000E948B0508F48FEF08950E94F0050C94B5
:100BC00061060E94530638F00E945A0620F09523D1
:100BD00011F00C944A060C94500611240C94D20582
:100BE0000E94AF0570F3959FC1F3950F50E0551F1C
:100BF000629FF001729FBB27F00DB11D639FAA2772
:100C0000F00DB11DAA1F649F6627B00DA11D661FC0
:100C1000829F2227B00DA11D621F739FB00DA11DE1
:100C2000621F839FA00D611D221F749F3327A00D9B
:100C3000611D231F849F600D211D822F762F6A2F37
:100C400011249F5750409AF0F1F088234AF0EE0F9C
:100C5000FF1FBB1F661F771F881F91505040A9F7C9
:100C60009E3F510580F00C944A060C94D2055F3FDC
:100C7000E4F3983ED4F3869577956795B795F79505
:100C8000E7959F5FC1F7FE2B880F911D969587957D
:100C900097F9089597F99F6780E870E060E00895FC
:100CA0009FEF80EC089500240A9416161706180684
:100CB0000906089500240A94121613061406050660
:100CC0000895092E0394000C11F4882352F0BB0FF1
:100CD00040F4BF2B11F460FF04C06F5F7F4F8F4F54
:080CE0009F4F0895F894FFCF27
:00000001FF
